:020000040000FA
:04000000E8EF04F031
:0D08000000486F6C61206D756E646F000024
:10080E00959038EC04F0000E066E010E056E000E8B
:10081E00086E080E076ED0EC04F0570EB7EC04F01D
:10082E00000E066E010E056E000E086E000E076EAF
:10083E00D0EC04F0650EB7EC04F0000E066E000E60
:10084E00056E000E086E000E076ED0EC04F0010E61
:10085E00056E080E066E83EC04F034EF04F000EF24
:10086E0000F0000E956E820E056EDE0EE82EFED79F
:10087E00052EFCD7300E9EEC04F0210E056E760E82
:10088E00E82EFED7052EFCD700D0300E9EEC04F0DD
:10089E00A60EE82EFED700D0320E9EEC04F0280EE7
:1008AE009EEC04F00C0E9EEC04F0010E9EEC04F097
:1008BE00060E9EEC04F0120001040210D8A46AEF9A
:1008CE0004F06CEF04F06FEF04F08C8470EF04F022
:1008DE008C94070E036E7D0EE82EFED7032EFCD7EA
:1008EE0000F08C86070E036E7D0EE82EFED7032ECB
:1008FE00FCD700F08C9612008FEF04F005C0F6FFC7
:10090E0006C0F7FF0800F550B7EC04F0054A062ABA
:10091E0005C0F6FF06C0F7FF0800F5500009D8A481
:10092E009BEF04F09DEF04F085EF04F01200046ECF
:10093E00030E8C160450F00B8C12000E026E000E7D
:10094E00016E63EC04F0030E8C160438F00BF00B02
:10095E008C12000E026E000E016E63EC04F012009B
:10096E00046E030E8C160450F00B8C12000E026EE9
:10097E00010E016E63EC04F0030E8C160438F00BBE
:10098E00F00B8C12000E026E010E016E63EC04F081
:10099E00120006BEDBEF04F0065008E10504D8A0F5
:1009AE00DBEF04F0DDEF04F0E3EF04F00750C00FCF
:1009BE009EEC04F0E7EF04F00750800F9EEC04F07D
:1009CE001200000EF86E080EF76E000107EF04F02D
:020000040020DA
:08000000FFFFFFFFFFFFFFFF00
:020000040030CA
:0E000000008C181EFF8180FF0FC00FE00F4024
:00000001FF
